:400000000080002011000000792100007921000008B5044B1A6803F53F5302331A6002F0B3F800BFFA46004010B5054C237833B9044B13B10448AFF300800123237010BD96
:400040001883FF1F0000000070380000084B10B51BB108490848AFF300800848036803B910BD074B002BFBD0BDE81040184700BF000000001C83FF1F70380000C880FF1F0E
:400080000000000008B5002002F0CAFA08BD00BF684620F007018D4619B572B6EFF311841E4B1B68DBB20F2B10D9103B23F0030202F1604202F564421168DB0003F0180390
:4000C000E0229A400A4022FA03F306E00F2B03D1134B1B681B0E00E0002383F31188114A136801331360012B01D103F0DDF962B6FFF7C8FF72B684F3118802F095FC094A91
:400100001368013B13601BB903F0D7F903F09BF962B6BDE819408546704700BF04ED00E020ED00E0F084FF1F08B562B645F6BF52054B1A60054A136843F002031360002050
:4001400002F0B4FDFBE700BF14E000E010E000E008B502F033FF01F05FFB02F0A7FE0B4A136843F00503136001221146002002F0D9F8022002F062F8012002F05FF8002001
:4001800000F0FEFE02F0D8FD08BD00BF10E000E038B53F4B1B78012B38D13E4B1B684EF6602293422FD100223A4B1A603A4B9B6893F82020012A02D1586A02F03FFC364B70
:4001C00005221A7000225A6002225A709B6893F82020012A02D1586A02F0D6FD2E4B9B685D699B6893B13DB910E0996855F8240002F0BCFA013400E00024274B9B681A6977
:400200009442F2D302E00133224A1360234B1B78012B36D11F4B5B68FA2B2FD100221D4B5A601D4B9B6893F82020012A02D1586A02F004FC184B04221A7000225A60022269
:400240005A709B6893F82020012A02D1586A02F09BFD114B9B685D699B6893B13DB910E0996855F8240002F081FA013400E00024094B9B681A699442F2D302E00133054A58
:400280005360032001F0DAFF052001F0D7FF38BD3C83FF1F3483FF1F1081FF1F3D83FF1F38B503F0B3F801282BD1164B9B6893F82020012A02D1586A02F0C0FB114B0122B3
:4002C0001A7000225A6002225A709B6893F82020012A02D1586A02F057FD0A4B9B685D699B6873B13DB938BD996855F8240002F03DFA013400E00024024B9B681A69944229
:40030000F2D338BD1081FF1F684620F007018D4619B572B6EFF311841E4B1B68DBB20F2B10D9103B23F0030202F1604202F564421168DB0003F01803E0229A400A4022FA79
:4003400003F306E00F2B03D1134B1B681B0E00E0002383F31188114A136801331360012B01D103F0A1F862B6FFF79AFF72B684F3118802F059FB094A1368013B13601BB9FA
:4003800003F09BF803F05FF862B6BDE819408546704700BF04ED00E020ED00E0F084FF1F38B503F03BF801282BD1164B9B6893F82020012A02D1586A02F040FB114B0222F2
:4003C0001A7000225A6002225A709B6893F82020012A02D1586A02F0D7FC0A4B9B685D699B6873B13DB938BD996855F8240002F0BDF9013400E00024024B9B681A6994422A
:40040000F2D338BD1081FF1F684620F007018D4619B572B6EFF311841E4B1B68DBB20F2B10D9103B23F0030202F1604202F564421168DB0003F01803E0229A400A4022FA78
:4004400003F306E00F2B03D1134B1B681B0E00E0002383F31188114A136801331360012B01D103F021F862B6FFF79AFF72B684F3118802F0D9FA094A1368013B13601BB9FA
:4004800003F01BF802F0DFFF62B6BDE819408546704700BF04ED00E020ED00E0F084FF1FFEE700BF0122014B1A7070473C83FF1F0022014B1A7070473C83FF1F0122014B93
:4004C0005A7070473C83FF1F0022014B5A7070473C83FF1FF0B5D7B007460E46DFF86CE248AC75460FCD0FC40FCD0FC40FCD0FC495E8030084E803008DF82C6102AC48AD80
:400500000FCD0FC40FCD0FC40FCD0FC495E8030084E80300DEF8403093F82020012A02D1586A02F08BFADFF824E2744602AD0FCD0FC40FCD0FC40FCD0FC495E8030084E838
:4005400003000023CEF83C3002238EF83830DEF8403093F82020012A02D1586A02F014FC7A4B1B6C5D699B6873B13DB90CE0996855F8240002F0FAF8013400E00024734BD5
:400580001B6C1A699442F2D3012E6ED19DF8302156AB03F8702D6E4801930097022302460321183000F01AFF684E1EAC35460FCD0FC40FCD0FC40FCD0FC495E8030084E8F2
:4005C000030048AC1EAD0FCD0FC40FCD0FC40FCD0FC495E8030084E803009DF8E8308DF8303110AC48AD0FCD0FC40FCD0FC40FCD0FC495E8030084E80300336C93F8202093
:40060000012A02D1586A02F019FA504E344610AD0FCD0FC40FCD0FC40FCD0FC495E8030084E803000023F363022386F83830336C93F82020012A02D1586A02F0A5FB434B56
:400640001B6C5D699B68002B7ED03DB97CE0996855F8240002F08AF8013400E000243B4B1B6C1A699442F2D36EE0022E6CD19DF8442156AB03F8E02D35480193009702238A
:4006800002460321183000F0A9FE304E3AAC35460FCD0FC40FCD0FC40FCD0FC495E8030084E8030048AC3AAD0FCD0FC40FCD0FC40FCD0FC495E8030084E803009DF8783000
:4006C0008DF844312CAC48AD0FCD0FC40FCD0FC40FCD0FC495E8030084E80300336C93F82020012A02D1586A02F0A8F9174E34462CAD0FCD0FC40FCD0FC40FCD0FC495E838
:40070000030084E803000023F363022386F83830336C93F82020012A02D1586A02F034FB0A4B1B6C5D699B6873B13DB90CE0996855F8240002F01AF8013400E00024034BD0
:400740001B6C1A699442F2D357B0F0BDCC80FF1F7438000008B5044802F076FC01210420FFF7B8FE08BD00BFA039000008B5044802F06AFC01210220FFF7ACFE08BD00BF85
:40078000C039000008B5064802F05EFC01210846FFF7A0FE02210120FFF79CFE08BD00BFDC39000008B5044802F04EFC02210420FFF790FE08BD00BFFC39000008B50448A6
:4007C00002F042FC02210846FFF784FE08BD00BF183A000008B5044802F036FC02210120FFF778FE08BD00BF343A000008B5044802F02AFC01210846FFF76CFE08BD00BFC6
:40080000503A000038B5184802F01EFC174B9B6893F82020012A02D1586A02F00FF9134B06221A7000225A6002225A709B6893F82020012A02D1586A02F0A6FA0B4B9B6898
:400840005D699B6873B13DB938BD996855F8240001F08CFF013400E00024044B9B681A699442F2D338BD00BF6C3A00001081FF1F70B59CB03F4802F0E7FB0EAC3E4D0FCD13
:400880000FC40FCD0FC40FCD0FC495E8030084E803009DF84830043BDBB2012B0ED8BDF854200132354B83FB0231D317C3EBA10303EB4303D900531AADF854309DF85C30A0
:4008C000043BDBB2012B0FD8BDF8682001322C4882FB00011144D317C3EB6113C3EB03139900531AADF868306C460EAD0FCD0FC40FCD0FC40FCD0FC495E8030084E80300E6
:400900001D4B1B6C93F82020012A02D1586A02F095F8194E34466D460FCD0FC40FCD0FC40FCD0FC495E8030084E803000023F363022386F83830336C93F82020012A02D142
:40094000586A02F021FA0C4B1B6C5D699B6873B13DB90CE0996855F8240001F007FF013400E00024044B1B6C1A699442F2D31CB070BD00BF843A0000CC80FF1FABAAAA2A5C
:400980008988888870B59EB02F4802F05DFB2F4E10AC35460FCD0FC40FCD0FC40FCD0FC495E8030084E803004FF6FF73ADF83C300023ADF83E300F98CDF85E00CDF8720033
:4009C00001AC10AD0FCD0FC40FCD0FC40FCD0FC495E8030084E80300336C93F82020012A02D1586A02F02AF8184E344601AD0FCD0FC40FCD0FC40FCD0FC495E8030084E8CC
:400A000003000023F363022386F83830336C93F82020012A02D1586A02F0B6F90B4B1B6C5D699B6873B13DB90CE0996855F8240001F09CFE013400E00024044B1B6C1A6929
:400A40009442F2D31EB070BD9C3A0000CC80FF1F70B59EB0384802F0F7FA10AC374D0FCD0FC40FCD0FC40FCD0FC495E8030084E803000023ADF83C304FF6FF72ADF83E20A1
:400A8000ADF83820ADF83A309DF84C30012B05D10F98CDF85E000E98CDF87200022B05D10E98CDF85E000F98CDF872006C4610AD0FCD0FC40FCD0FC40FCD0FC495E80300CA
:400AC00084E803001D4B1B6C93F82020012A02D1586A01F0B3FF194E34466D460FCD0FC40FCD0FC40FCD0FC495E8030084E803000023F363022386F83830336C93F82020EC
:400B0000012A02D1586A02F03FF90C4B1B6C5D699B6873B13DB90CE0996855F8240001F025FE013400E00024044B1B6C1A699442F2D31EB070BD00BFB43A0000CC80FF1F59
:400B400038B51A4802F080FA01210320FFF7C2FC174B9B6893F82020012A02D1586A01F06DFF134B04221A7000225A6002225A709B6893F82020012A02D1586A02F004F91F
:400B80000B4B9B685D699B6873B13DB938BD996855F8240001F0EAFD013400E00024044B9B681A699442F2D338BD00BFCC3A00001081FF1F38B51A4802F046FA02210320E1
:400BC000FFF788FC174B9B6893F82020012A02D1586A01F033FF134B04221A7000225A6002225A709B6893F82020012A02D1586A02F0CAF80B4B9B685D699B6873B13DB912
:400C000038BD996855F8240001F0B0FD013400E00024044B9B681A699442F2D338BD00BFE83A00001081FF1F70B59CB03A4802F00BFA0EAC394D0FCD0FC40FCD0FC40FCD1D
:400C40000FC495E8030084E80300BDF85410BDF868200132324C82FB04455019D317C3EB6013C3EB03139800131A9BB25BB94A1C2C4981FB0210D117C1EBA00101EB4101BB
:400C8000C800111A89B2ADF85410ADF868306C460EAD0FCD0FC40FCD0FC40FCD0FC495E8030084E803001D4B1B6C93F82020012A02D1586A01F0C2FE184E34466D460FCDBD
:400CC0000FC40FCD0FC40FCD0FC495E8030084E803000023F363022386F83830336C93F82020012A02D1586A02F04EF80B4B1B6C5D699B6873B13DB90CE0996855F82400D0
:400D000001F034FD013400E00024044B1B6C1A699442F2D31CB070BD043B0000CC80FF1F89888888ABAAAA2A70B5A2B03C4802F08BF93C4E14AC35460FCD0FC40FCD0FC4E4
:400D40000FCD0FC495E8030084E8030000238DF850308DF85C3003228DF83C204FF6FF72ADF83820ADF83A300E98CDF84A00BDF86C30ADF8483018AC0FAD0FCD0FC42B68EF
:400D80002360BDF88030ADF848301DAC0FAD0FCD0FC42B6823606C4614AD0FCD0FC40FCD0FC40FCD0FC495E8030084E80300336C93F82020012A02D1586A01F03FFE194EB6
:400DC00034466D460FCD0FC40FCD0FC40FCD0FC495E8030084E803000023F363022386F83830336C93F82020012A02D1586A01F0CBFF0C4B1B6C5D699B6873B13DB90CE0B4
:400E0000996855F8240001F0B1FC013400E00024044B1B6C1A699442F2D322B070BD00BF203B0000CC80FF1F70B5AEB020AC4E4D0FCD0FC40FCD0FC40FCD0FC495E803007B
:400E400084E80300494B1A78062A02D1FFF76CFF6CE09DF880102EAB03F8A91D4448019300920223024603213C3000F0B7FA3E4E12AC35460FCD0FC40FCD0FC40FCD0FC44C
:400E800095E8030084E8030020AC12AD0FCD0FC40FCD0FC40FCD0FC495E8030084E803009DF80F308DF8803004AC20AD0FCD0FC40FCD0FC40FCD0FC495E8030084E803003A
:400EC000336C93F82020012A02D1586A01F0B6FD254E344604AD0FCD0FC40FCD0FC40FCD0FC495E8030084E803000023F363022386F83830336C93F82020012A02D1586ADC
:400F000001F042FF184B1B6C5D699B6873B13DB90CE0996855F8240001F028FC013400E00024114B1B6C1A699442F2D3114802F08BF8114C02222146BDF89C0000F09AFF75
:400F4000204602F081F83A2002F046F802222146BDF8B00000F08EFF204602F075F8074802F072F82EB070BDCC80FF1F1081FF1F74380000003B00004083FF1F3C3B0000D6
:400F8000F0B5A5B0424E06F13C031793002318938DF8643003228DF8442006F1180212921396ADF850304FF6FF72ADF84020ADF8423024AF57F8500DCDF852001AAC11AD63
:400FC0000FCD0FC42B6823603868CDF852001FAC11AD0FCD0FC42B6823600DF13F020221304600F0E3F99DF83F308DF8583001AC16AD0FCD0FC40FCD0FC40FCD0FC495E878
:40100000030084E80300234B1B6C93F82020012A02D1586A01F012FD1E4E344601AD0FCD0FC40FCD0FC40FCD0FC495E8030084E803000023F363022386F83830336C93F880
:401040002020012A02D1586A01F09EFE114B1B6C5D699B6873B13DB90CE0996855F8240001F084FB013400E000240A4B1B6C1A699442F2D3642000F0F7FA00214FF6FF70E2
:4010800000F062FB032000F067FB25B0F0BD00BF74380000CC80FF1F30B58FB06C46714D0FCD0FC40FCD0FC40FCD0FC495E8030084E8030000F0D8FE00EBD0704110083904
:4010C00009B20F2000F038FBBDF82010BDF81E0000F03AFB644D02222946BDF81C0000F0C9FE284600F0B0FE00F0B8FE044600F0BBFE00EBD0704110083904EBD470401055
:401100000C3809B200B200F017FB00214FF6FF7000F01AFBEB8B012B02D001339BB200E00023514AD38323B9138CB3FA83F35B0901E04D4B1B8C4C4A13840BB93A2000E0EC
:40114000202000F0DFFD00F089FE4000474B83FB0023A3EBE07400F087FE00EBD07041100839A4F10C0009B200B200F0E5FABDF83410BDF8320000F0E7FA3B4C02222146C5
:40118000BDF8300000F076FE204600F05DFE238C8BBB00F063FE044600F066FE054600F05DFE00EBD0704210063A05EBD57104EBD4704FF2893312B241F34F0140F34F00CE
:4011C00000F0F6FB00F04AFE044600F04DFE054600F044FE00EBD0704210033A05EBD57104EBD4701F2312B241F34F0140F34F0000F0DEFB33E0012B31D100F02FFE044634
:4012000000F032FE054600F029FE00EBD0704210063A05EBD57104EBD47040F23D2312B241F34F0140F34F0000F0C2FB00F016FE044600F019FE054600F010FE00EBD07034
:401240004210033A05EBD57104EBD4704FF4FC6312B241F34F0140F34F0000F0A9FB0FB030BD00BFCC80FF1F6083FF1F5655555538B502F0D3F8012804D11E4A136832335B
:40128000136002E000221B4B1A601A4B1B68B3F57A7F2ED10022174B1A60174B9B6893F82020012A02D1586A01F0C8FB124B03221A7000225A6002225A709B6893F8202009
:4012C000012A02D1586A01F05FFD0B4B9B685D699B6873B13DB938BD996855F8240001F045FA013400E00024034B9B681A699442F2D338BD8483FF1F1081FF1F00B583B0B5
:4013000000230193022001F0B1FA01A9022001F00DFA019801F0DCF9019A0121014800F0DBFDEFE7403B000010B5074C22680121064800F0B9FD23680133236013F5807FF5
:4013400001D90022226010BD8883FF1F4C3B000010B5074C22680121064800F0A5FD23680133236013F5807F01D90022226010BD8C83FF1F583B000008B5012000F0C2FDED
:4013800008BD00BF30B4002309E003EB4305AC00045D944201D118B205E001339BB28B42F3D34FF0FF3030BC704700BF0023137060B9704704EB44029300EA18EB5C13B9E8
:4013C000536803B198470134A4B203E070B505460E460024B442EDD370BD00BF2DE9F84F044691469A469DF828800B9B93F800B05A46FFF7C7FFB0F1FF3F60D000EB400095
:4014000083001C4465680DB1268900E00026002D59D0002E5BD000244CE0274604EB44029300EB5C434543D104EB440293002B445B6813B1984701283AD17A00D1198B00B2
:4014400019462B449C680D446E78B9F1000F0FD111E005EB4502930009EB030219F803309B4502D1936803B198470135ADB200E000255545EDD304B1A047B9F1000F0FD168
:4014800011E004EB4402930009EB030219F803309E4202D1536803B198470134A4B200E000245445EDD30B9B1E700020BDE8F88F0134A4B2A642B0D80020BDE8F88F6FF027
:4014C0001300BDE8F88F6FF01600BDE8F88F6FF01600BDE8F88F00BF10B50446013001F0B3FD064801F0B0FD04F1110001F0ACFD034801F0A9FD002010BD00BF743B000002
:40150000003B000038B5134B988908B319461C89631C9BB2104AA2FB03525209642505FB12330B810138888101EB44018B7B13B1012B04D006E0002001F082FE02E00120C1
:4015400001F07EFE034B03EB4404E07B01F02CFE38BD00BF9083FF1F1F85EB5130B5ABB01B4B9B89632B17D92AAD032305F8A83D184B1868CDF80100174C0FCCCDF811005B
:40158000CDF81510CDF81920CDF81D302846FFF7A3FF6FF0070019E00D4D6C89621C92B205EB4404A073E1730C49A1FB02014909642000FB11226A8101339BB2AB81012B60
:4015C00003D1FFF79FFF002000E000202BB030BD9083FF1FD0400000D44000001F85EB512DE9F04180460E4617461D462A210020FFF7B4FF00210120FFF7B0FF194C94F859
:40160000D6104144C9B20120FFF7A8FF00210120FFF7A4FF94F8D6103944C9B20120FFF79DFF2B210020FFF799FF00210120FFF795FF94F8D7103144C9B20120FFF78EFF41
:4016400000210120FFF78AFF94F8D7102944C9B20120FFF783FF2C210020FFF77FFFBDE8F08100BF9083FF1F08B5642800D9642001F018FE08BD00BF10B504463621002017
:40168000FFF76CFF04F003002A4B83F8D80003284ED8DFE800F00215283BC2210120FFF75DFF244BA022A3F8DA208022DA8093F8DC2083F8D62093F8DD2083F8D72010BDB1
:4016C000A2210120FFF74AFF1A4BA022DA808022A3F8DA2093F8DC2083F8D72093F8DD2083F8D62010BD08210120FFF737FF114BA022A3F8DA208022DA8093F8DC2083F829
:40170000D62093F8DD2083F8D72010BD62210120FFF724FF074BA022DA808022A3F8DA2093F8DC2083F8D72093F8DD2083F8D62010BD00BF9083FF1F024BA3F8DE00A3F87A
:40174000E01070479083FF1F024BA3F8E200A3F8E41070479083FF1F08B90120FFE7014B187170479083FF1F2DE9F0411F46BDF818501F4BB3F90630834236DD90461C4AA2
:40178000B2F8DA20914230DA00EB0804013C9C4202DB1B1A0FFA83F87B18013B9A4201DC571A3FB2C0B2C9B2CB19013B00EB0802013ADBB2D2B2FFF713FF2E0AEDB20120C8
:4017C00001F03EFD0FE031460220FFF7C7FE29460220FFF7C3FE013C24B200E04446002CF1DC013F3FB2002FF8DCBDE8F08100BF9083FF1F00B583B0064AB2F9DA30B2F9EA
:401800000620009000210846FFF7AEFF03B05DF804FB00BF9083FF1FF8B5364B8022DA80A022A3F8DA20002483F8D840A3F8DE40A3F8E04001251D714FF6FF72A3F8E22036
:40184000A3F8E4405D711C6083F8DD4083F8DC4083F8D64083F8D7401C815C819C8101F0E1FC284601F0F8FC642001F08DFD204601F0F2FC642001F087FD284601F0ECFCD1
:40188000142001F081FD29462046FFF767FE322001F07AFD11212046FFF760FE782001F073FD0F22144D14E02C4614F8021B0020FFF754FE6A78254606E06E1C29780120AE
:4018C000FFF74CFE22463546531EDCB2002AF4D13A46531EDFB2002AE6D10220FFF7CCFE0020FFF787FF01F023FD642001F0DAFCF8BD00BF9083FF1F793B0000002821DB1D
:40190000114BB3F9063098421CDA00291ADB0E4BB3F8DA30994215DA10B51446C0B2C9B24B1C421CDBB2D2B2FFF75AFE012001F087FC210A0220FFF711FEE1B20220FFF7E1
:401940000DFE10BD704700BF9083FF1FF8B51E46164BB3F90630834226DD1546134BB3F8DA30994220DA0A44013A934201DC5D1A2DB2C0B2C9B24B19013BDBB20246FFF7A0
:401980002FFE370AF6B2012001F05AFC08E039460220FFF7E3FD31460220FFF7DFFD25466A1E14B2002DF2D1F8BD00BF9083FF1F2DE9F04F87B082460E4602921F4601935C
:4019C00095B2C5F1010424B2C5EBC53253001AB205921FFA81FB05EB0B013A4609B2FFF78DFFC5EB0B013A4609B25046FFF786FF1FFA8AFA05EB0A003A46314600B2FFF726
:401A00007DFFC5EB0A003A46314600B2FFF776FF4FF000090123039360E0002C0ADB029B013B1BB20293059B02339BB21AB205921C4424B209F10105ADB20FFA85F9039B8F
:401A400002339BB21AB203921C4424B20AEB05031BB2BDF808600BEB06080FFA88F8019A414604931846FFF749FFC5EB0A073FB2019A41463846FFF741FFC6EB0B080FFA2F
:401A800088F8019A41460498FFF738FF019A41463846FFF733FF0AEB06073FB20BEB05080FFA88F8019A41463846FFF727FFC6EB0A0636B2019A41463046FFF71FFFC5EBB3
:401AC0000B052DB2DDF80480424629463846FFF715FF424629463046FFF710FF029B99459BDB07B0BDE8F08F2DE9F04F8BB00290039115460493BDF850709DF854A07F4B71
:401B00001A68002A40F09080B3F906300146834240F3F180794BB3F8DA300398984280F2EA800AEB4A0253000B44012B00F1E38000EBCA03012B00F1DE804FF000088946B1
:401B400083460595049E4EE0059B03EB830343446B4A134493F8585000243EE015F0010F1BD0BAF1010F09D104EB0B0108EB0900324609B200B2FFF7C1FE2BE01FFA8AF052
:401B80000FFA8AF204FB00B108FB00900096134609B200B2FFF7E8FD1CE0BE421AD0BAF1010F09D104EB0B0108EB09003A4609B200B2FFF7A3FE0DE01FFA8AF00FFA8AF22B
:401BC00004FB00B108FB00900097134609B200B2FFF7CAFD013464B26D08072CBEDD08F101084FFA88F8B8F1040FADDD049BBB4200F08180BAF1010F08D1029805303B4678
:401C00000822039900B2FFF7A1FE74E01FFA8AF303EB8300029A10440097DB005246039900B2FFF7A1FD66E0137AEB1ADBB2506800EBC301D2F800B030F8337091F8028044
:401C4000CB78079391F90530089391F906200992BAF1010F04D91BB2059313B2069302E000230693059300231C46994640E05E1CF6B213F0070F03D17B1C1BF807409FB27C
:401C800014F0800F27D0BAF1010F0DD1099B039A99184944089B029A98182844049A09B200B2FFF72BFE16E0059B58191FFA8AF3069A02EB09010FFA8AFE039A01FB03217B
:401CC000029A00FB0320049B00937246734609B200B2FFF749FD6400E4B20135EDB2334600E000254545C2D309F101095FFA89F9079A9145F5D30BB0BDE8F08F9083FF1F44
:401D0000783B000070B582B04E4B1B68002B43D10A280BD14B4B0022A3F8DE201979B3F8E02002EBC102A3F8E02088E00D2800F08680444B5B79ABB1424A117901EB4104BE
:401D40006300B2F8DE402344B2F90620934209DD3C4B0022A3F8DE20B3F8E02002EBC101A3F8E010374CB4F8E230B4F9E010B4F9DE5022790192B4F8E4200092024628463F
:401D8000FFF7B2FE237903EB43035A00B4F8DE301344A4F8DE3052E00A280CD1294A0021A2F8DE10997A1079B2F8E03000FB0133A2F8E03043E00D2841D01A7A90423ED32C
:401DC000597A88423BD8821A5C6804EBC204A278E1785AB351B394F905501A494979A9B118490E792A44B1F8DE5002FB0652B1F906108A420ADD134A0021A2F8DE109B7A29
:401E0000B2F8E01006FB0316A2F8E0600D4AB2F8E230B2F9E010B2F9DE5016790196B2F8E420009202462846FFF75EFE2179054B1879B3F8DE2000FB0122A3F8DE2002B092
:401E400070BD00BF9083FF1F10B5044602E00134FFF758FF20780028F9D110BD014BB3F9060070479083FF1F014BB3F9DA0070479083FF1FF0B401240EE0171B094BA3FB00
:401E80000053DB081E4603EB83035D00431B3033CB5530460134E4B29442EED900208854F0BC7047CDCCCCCCF8B506460F46154600240DE006EBC4039A88B5FBF2F302FB42
:401EC00013531BB956F83430002098470134A4B2BC42EFD3F8BD00BFF8B505460E461746002409E005EBC4035868384202D055F8343098470134A4B2B442F3D3F8BD00BF74
:401F000000207047084BDB6B034413F1011F01D8054AD363044B9B6C184410F1011F01D8014B9864704700BFCC80FF1F00207047FEE700BFF0B40022174611E050F8276036
:401F4000F3B226F0FF0608E001EB420511F812406D78A5550132013BDBB2002BF4D10137182FEBD9F0BC7047064B1B78DBB203F00701054A11701B09013213704422034BF0
:401F80001A707047CF0100496E5800407658004008B50A46002101F062FC08BD38B50024284B1C80582202331A70192502331D801823254A137041F2BF21023211800232CF
:401FC00013700222214B1A7008224FF040231A70032103F5007319701D4B1B78DBB21D490B701D4B1A8041F25122023B1A800CE01A4B1B7803F0010343EA440404F00304A3
:402000004FF4F07001F0D8FA013D0DB1032CEFD115B90320FFF78CFF114B4FF480721A8007221A7000220F490A704820023108701A700222033B1A700B4A137843F0070365
:40204000137038BD80400040864000400043004008010049A146004022420040254200400440004006400040A243004008B501F0EBFB08BD38B572B600240CE0304D63000E
:4020800019194A0011462A44084691882858FFF77FFF0134E4B20A2CF0D900240CE02848A20011194B000344B3F84C20996C586CFFF7DCFF0134E4B2022CF0D921494FF0C0
:4020C0009040FFF737FF204A137843F0020313701032137843F0020313701C4C237843F040032370A2F58632513A137843F010031370082216491748FFF7B8FF0A22164952
:402100001648FFF7B3FF082215491648FFF7AEFF154A137843F008031370144D61232B70FFF73CFF81232B700122114B1A70FFF71BFF0E2221460F48FFF798FF38BD00BF2D
:40214000384100006400004803500140A04300407C0500480251004084050048C05100409005004832510040224300400048004004000840B043004008B501F039FB03686C
:402180000C2B00D1FEE7FEE708B5104E104D16E029686B68AC68002204E051F8040B43F8040B0432A242F8D1E868002203E0002143F8041B04328242F9D11035013E002E96
:4021C000E6D101F01BFBFDF7AFFFFEE7010000006444000008B5104A104B1A60104A136843F40073136000230AE0032B03D80D4A52F8231000E00C490C4A42F823100133FD
:402200002F2BF2D90A4B1A780A4B1A70074A0A4B1A60FFF72FFF08BD0004FA050CED00E014ED00E000000000792100000080FF1FBC760040C080FF1F08ED00E038B5EFF341
:40224000108572B605284ED82D4B53F82030002B4BD02B4A013B42F820302A4B53F82030032B07D10222274B43F820200022264B43F8202000F09CFC244B1B68002B36D1D9
:40228000234B1C6800F072FCB0F1FF3F31D0214B53F82020204B1B689A422CD9B4F1FF3F03D00221174A42F824101C4A52F820201343194A13600022124B43F8202000F07A
:4022C00011FC174B53F820304BB10024144B43F8204040F0004001F0F9F820460CE001F0F5F8002008E0032006E0042004E0002002E0002000E0002085F3108838BD00BF39
:402300009081FF1F4482FF1FB084FF1FF084FF1F2882FF1F3C430000D084FF1F144300008084FF1FF8B5EFF3108472B628BB00EB4005AB00184DEB5803EB4306B500174E72
:4023400075598D421BD34AB103EB43039E00134B1E44B3689A4214D3954214D3A9B103010F4DEB589BB90301EE180127EF507260013900F087F800200AE0032008E008202F
:4023800006E0082004E0082002E0082000E0072084F31088F8BD00BFBC420000D0420000C894FF1F18B108B5C368984708BD704708B508B1406800E00020052816D80C4B49
:4023C00053F8203093B10A4A013B42F82030094B53F82030032B07D10222064B43F820200022054B43F8202000F0E2FB08BD00BF9081FF1F4482FF1FB084FF1F18B103464A
:4024000040689B6801E00023184605281DD80F4A52F82020CAB10E4A52F82010032914D010B50C4C54F820201A4344F820200A4A52F82020134207D0012905D10222044B2E
:4024400043F8202000F0B4FB10BD7047E44200004482FF1FB084FF1F9884FF1F80B108B50378012B06D013B1032B06D008BDFFF79FFF08BDFFF7C2FF08BDFFF793FF08BD0E
:40248000704700BF30B400EB40029300214AD258214B03EBC2035C68B4F1FF3F04D11E4B03EBC20250602DE01C4B03EB04139B6899420AD2184D05EBC2025060174A02EBBD
:4024C00004125B1A93601DE01C46144B03EB04139A68891ADB68B3F1FF3F05D00F4A02EB031292689142EFD2B3F1FF3F05D00B4A02EB031295686D1A9560084A02EB041435
:40250000E0601C46054B03EB00108160C46030BC704700BFBC4200002081FF1FC894FF1F38B5394A02EBC0035C6852F83030013342F8303000EB40018A0034498A589342C7
:4025400003D90022304B43F83020B4F1FF3F59D02F4B03EB04139B68002B4ED1214600E019462B4B03EB0113DB68B3F1FF3F05D0274A02EB03129268002AF1D0244A02EBB4
:4025800001114FF0FF32CA601F4A02EBC0004360B3F1FF3F07D01E4A02EB03139A68013A9A6000E02C4604EB44029300194A13441B7A7BB904EB44029300164A13445A687D
:4025C000154B53F8223003EB83039A0013481044FFF744FF0E4B03EB0413DD68596821B101392046FFF74EFF03E024010022084B1A51B5F1FF3FD5D138BD054A02EB041414
:40260000013BA36038BD00BF2081FF1FD0420000C894FF1FBC420000CC420000A842000038B5EFF3108572B6002838D1FFF778FF204B1B68002B34D11F4B1C6800F096FAB0
:40264000B0F1FF3F2FD01D4B53F820201C4B1B689A422AD9B4F1FF3F03D00221194A42F82410194A52F820201343154A13600022144B43F8202000F035FA144B53F82030EC
:402680004BB10024114B43F8204040F0004000F01DFF20460AE000F019FF002006E0032004E0002002E0002000E0002085F3108838BD00BFF084FF1F2882FF1F3C43000063
:4026C000D084FF1F4482FF1F144300008084FF1FEFF3108372B6114A1168114A126882B9B1F1FF3F0FD00F4A52F821206AB110B40D4C54F8212022EA000044F82100002099
:4027000007E0022002E0022000E0012083F31088704783F3108810BC704700BF2882FF1FF084FF1FE4420000B084FF1F05280FD80B4B53F820306BB10A4B53F82030032B65
:402740000AD059B1084B53F820300B60002070470320704701207047072070470E207047E44200004482FF1FB084FF1F38B5EFF3108472B6052853D8324B53F82030002B4E
:4027800050D0314B53F82030032B4DD02F4D55F820200A4345F820202D4A52F82020114244D0012B44D10222274B43F8202000F0FFF9284B1B68002B3CD1274B1D6800F00D
:4027C000D5F9B0F1FF3F37D0244B53F82020244B1B689A4232D9B5F1FF3F03D002211A4A42F825101F4A52F8202013431C4A13600022154B43F8202000F074F91A4B53F879
:4028000020304BB10025184B43F8205040F0004000F05CFE284612E000F058FE00200EE003200CE001200AE0072008E0002006E0002004E0002002E0002000E0002084F3DF
:40284000108838BDE44200004482FF1FB084FF1F9884FF1FF084FF1F2882FF1F3C430000D084FF1F144300008084FF1F38B5EFF3108472B63A4B1D683A4B1B68002B63D175
:40288000B5F1FF3F62D0384B53F82530B3F1FF3F5ED1364B53F82530002B5BD0344B53F82530034258D1334B43F825000122324B43F82520314B53F8250031490B6823EAE6
:4028C00000030B602F4B43F825202F4B53F82520234B1A6000F04AF9B0F1FF3F06D02B4B53F82020264B1B689A420DD81C4B1868B0F1FF3F03D000221F4B43F8202040F010
:40290000004000F0E3FD1AE000211B4A42F820101A4A52F820201343194A136000F0E2F8184B53F8203043B10022164B43F8202040F0004000F0CAFD01E000F0C7FD0020ED
:402940000C4B43F8250008E0022006E0022004E0062002E0012000E0002084F3108838BD2882FF1FF084FF1F3081FF1FE4420000B084FF1F9884FF1F4482FF1F1443000067
:40298000D084FF1F8084FF1F2C82FF1F3C43000008B500F0A7F8084B53F8203043B10022054B43F8202040F00040044B186008BD024B186008BD00BF8084FF1FF484FF1F20
:4029C00010B500F0D3F8124B1B68B0F1FF3F1AD0104A52F82010104A1268914213D9B3F1FF3F03D002240D4941F8234000210B4B43F820100A4B53F820301A43064B1A6080
:402A0000FFF7C6FF10BD43F00043064A136010BD2882FF1F3C430000D084FF1F4482FF1F14430000F484FF1F034B1B6813B10022014B1A60704700BFE484FF1F204B1A6818
:402A4000204B1968EFF3108372B6012829D830B41D4C54F8204044BB51B9B2F1FF3F26D01A4C54F822501A4C54F82040A54220D809BB184951F82250174C44F8205041F88D
:402A800022000121104A42F8201014490C68144A42F820400E4A52F8202022430A6000200AE0032083F310887047012004E0012002E0012000E0012083F3108830BC7047C7
:402AC0002882FF1FF084FF1F7884FF1F3C430000DC4200003081FF1F2881FF1FD084FF1FD894FF1FF0B4184B19880B0A174AD356B3F1FF3F01D1535601E008335BB2144D05
:402B000055F82320134850F82200134E56F8224045F82340114D2F6846F822702A60B4F1FF3F09D10E4A42F82340012202FA03F321EA0301044B19800A4B19680A4A42F81E
:402B400020101860F0BC7047CC84FF1F9C410000E881FF1F9894FF1F6081FF1FC884FF1FA881FF1F2882FF1F2C82FF1F0C4B1A88130A0C49CB56B3F1FF3F01D18B5601E0E8
:402B800008335BB2B3F1FF3F06D0074A52F82320064B53F8220070474FF0FF30704700BFCC84FF1F9C410000E881FF1F9894FF1F30B4144B53F82020134C2368134951F865
:402BC00023502560124C44F823004FF0FF3441F82340104951F82210A1420AD10E4951F820400E480188214301800D4941F8223002E0064840F82130064941F8223030BC5C
:402C0000704700BF7881FF1FC884FF1F6081FF1F9894FF1FA881FF1F3C430000CC84FF1FE881FF1F10B150F8210070474FF0FF30704700BF0122014B1A60FEE7EC84FF1F78
:402C400070B50546124B53F8306000241CE0104B03EBC50321465868FFF7E4FF0D4A52F82030013B42F820300B4B53F82030032B07D10222084B43F820200022074B43F82C
:402C80002020FFF795FF0134B442E0D370BD00BF9C4200009081FF1F4482FF1FB084FF1F18B908B5FFF7CCFF08BD7047194B1A4ADA621A4A9A631A4ADA63EFF3108272B6D0
:402CC000184B1B6813BB10B5044600F0EFF8164B1C600122134B1A602046FFF7E1FFFFF745FFB0F1FF3F0ED0104B53F82030104A11680B43136000220E4B43F82020FFF7B9
:402D0000F1FE00F0E3FB62B6FFF794FF82F31088072070470080FF1F8D3400005134000091000000EC84FF1FC898FF1F14430000D084FF1F4482FF1F08B5EFF3108272B6C3
:402D40000D4B19680D4B1B6863B90D4B53F82130B3F1FF3F08D14FF0FF300A4B43F82100002002E0022000E0062010B9084600F006FC82F3108808BD2882FF1FF084FF1F56
:402D80003081FF1F4881FF1F70B53C4B1A683C4B1B68EFF3108572B601285BD8394951F82010002958D0384951F82210884255D153B9B2F1FF3F53D0344C54F82260344C14
:402DC00054F82040A6424DD8002B4DD1314C54F821402D4941F8224000212A4A42F820102D4A52F820102D4A1160002B3ED1234B1C68FFF7BBFEB0F1FF3F39D0234B53F842
:402E00002030264A1268934234D9B4F1FF3F03D00221234B43F82410224B53F8203013431E4A136000221E4B43F82020FFF75AFE1D4B53F820304BB100241B4B43F820400F
:402E400040F0004000F042FB204614E000F03EFB002010E003200EE005200CE005200AE0012008E0012006E0012004E0002002E0002000E0002085F3108870BD2882FF1FB5
:402E8000F084FF1F7884FF1F3081FF1F3C430000DC4200002881FF1FD894FF1FD084FF1F4482FF1F144300008084FF1F70B5124B1E68EFF3108572B600F0B8FA0F4A1368BD
:402EC00043F07F4313600E4BB3640121022000F085FA0C4C236843F0040323600A4BF3640221032000F07AFA236843F00803236085F3108870BD00BF08ED00E020ED00E047
:402F00000903000000E100E00904000008B51249002000F04FFA0721002000F05FFA00220E4B1A7072220E4B1A702022013B1A700C49012000F03EFA0721012000F04EFA12
:402F40000622094B1A70472210331A70022203F24D131A7008BD00BF6D300000D884FF1F8A650040053100002B64004010B500F02BFB04460D4A137843F020031370013A28
:402F8000137843F010031370094A0123136009490B7843F010030B70022307490B60136000F0D4F9204600F013FB10BD9A65004000E100E09865004080E200E008B5054B70
:402FC0005B7823B9FFF7A2FF0122024B5A70FFF7CDFF08BDD884FF1F164BD9799B79DBB2994205D25A1E914214BF0022012204E0CA1AC72A14BF00220122002AECD1994254
:4030000007D10D4B1B7813F0040F02D10B4B18707047C72900D90021094B58540131054BD971054B1B7813F0020F02D00222054B1A607047D884FF1F6865004048650040B7
:40304000D4BAFF1F00E200E038B5074B5B782BB938BDFFF7C1FF0134A4B201E005460024285D0028F5D138BDD884FF1F1D4B1B78DBB213F01E0F05D01B4803F01E02017808
:403080000A43027003F0200303F0FF0233B3174B1978C9B2164B1B78DBB21648C154164B1B7813F0FF0F02D00121144B197010490B780133DBB20B700B78DBB2C72B02D929
:4030C00000210B4B19700A4B1978C9B20C4B1B78DBB2994202D10121074B1970002AC5D1704700BF69650040D884FF1F4A650040DB84FF1F0CBAFF1FDC84FF1FDD84FF1F42
:40310000DA84FF1F13E0104B1B78DBB2C72B02D900220D4B1A700C4A1378DBB20B49CB5CDBB20B490B7013780133DBB21370064B1B78DBB2074A1278934204D0064B1B78E7
:4031400013F0040FDFD07047DE84FF1FD4BAFF1F48650040DF84FF1F6865004008B500F033FA0A4A137843F0200313700232137843F010031370013A137843F01003137083
:4031800000F026FA00F0F0F808BD00BF99640040014B1878704700BF6B640040014B1878704700BF6A640040034B1B7813F0040FFAD0024B187070476B640040486400405D
:4031C00008B501E00A4B1B780A4B1B7813F0200FF8D100F0F9F9084B1A7842F001021A701A7802F0FE021A7000F0F2F908BD00BF586400406A6400409864004008B50F223F
:40320000064B1A70FFF7DCFFFFF7C2FFFFF7C6FF0023034A1370013A137008BD896400408B64004008B5054B1B7823B9FFF7E6FF0122024B1A70FFF791FF08BDE184FF1F7F
:40324000044A137803F0F703C00000F00800184310707047C0510040044A137803F0EF03000100F0100018431070704730510040084A137843F0010313701032137843F044
:403280000103137002F64D32137843F001031370704700BFA3430040014B1880704700BF044F0040014B1880704700BF064F0040014B1870704700BF034F004008B5194A57
:4032C000137843F0020313700232137803F08F0343F010031370144B1A7802F0CF021A701A7842F030021A701A7802F0F0021A701A7842F00F021A706420FFF7CDFF0020F8
:40330000FFF7D0FF0020FFF7D3FF084A137843F00103137002F65E32137843F00103137008BD00BF004F00400B4F0040A343004008B5054B1B7823B9FFF7C0FF0122024B08
:403340001A70FFF795FF08BDE284FF1F054A137843F0020313701032137843F002031370704700BFA2430040054A137843F0010313701032137843F001031370704700BFA7
:40338000A243004001BE704710B5044605E0084B186800F011F9A4F50044B4F5004FF6D8034B586800FB04F000F006F910BD00BF9C82FF1F70B504460E46074B1D681F2879
:4033C00002D90020FFF7DEFF04F01F04103455F8240045F8246070BD08ED00E038B504460D46072902D90020FFF7CCFF1F2C02D90020FFF7C7FF04F01F0000F1604000F55F
:4034000064406D01EDB2057038BD00BF024B1878C0F3C000704700BF01510040024B1878C0F30010704700BF0151004018484FF47F0102680A43026016486FF07F4102688F
:403440000A400260704714484FF080510160704772B611484FF000610160FFF7B1FA0F48006800F005F958B10C4800684FF080730B4A0C490FB40FB46FF00600004700BF03
:403480006FF0060062B6004762B600DF08B0704720ED00E01CED00E004ED00E0F484FF1FCD34000089340000EFF30880054908600548006880F3088870470248006880F333
:4034C00008887047AC82FF1F8482FF1F411C8900154A11440968154A136899421AD0F0B444464D4656465F46F0B400B5104C9B002344EFF308851D601160890021440968F6
:4035000081F3088802BC8E46F0BCA046A946B246BB46F0BC002806DB00B500F09DF802BC8E46FFF7D3BF704784430000D484FF1F8882FF1FF0B444464D4656465F46F0B4B0
:4035400000B5EFF3038308B48000174901440968164A0244EFF30883136088471448804704BC4FF08070024382F3038801BC8646F0BCA046A946B246BB46F0BC704780004A
:403580000A4901440A6882F3088804BC4FF08070024382F3038808BC9E46F0BCA046A946B246BB46F0BC704754430000B094FF1FD9350000000000000230800803D000BFF0
:4035C00001380046FCD17047EFF3108072B6704780F31088704700BF10B572B6034B1C68204600F00DF82046FFF7C9FF2882FF1F08B5024B1868FFF79DFF08BD2882FF1F47
:4036000010B4104B53F820304FF0FF310BE00E4A52F823200B4941F8202000240B4941F8234019461346B3F1FF3FF0D1B1F1FF3F04D0074B53F82120064B1A60084610BCDE
:40364000704700BF3081FF1F2881FF1F7884FF1FD894FF1FD084FF1F08B562B6FFF7C8FF72B600F041F8014B186808BDF484FF1F00280BDA20F000400130054B53F82000D5
:40368000044B1B68181A18BF012070470120704784430000D484FF1F054B53F82020054B53F820309A4201D101207047002070479081FF1FFC42000008B5FFF713FA084B9F
:4036C00053F8203043B10022054B43F8202040F00040044B186008BD024B186008BD00BF8084FF1FF484FF1F38B5364B1C680022354B1A60354A52F82430013342F8243064
:40370000334B53F824502046FFF7C6FF012801D0A54204D103222F4B43F8242003E002222C4B43F824202C4B53F824102B4A136823EA010313602A4B53F82440214B1C60E4
:40374000B5F1FF3F0FD0234B53F82530032B07D10222204B43F825200022224B43F825202846FFF725FAFFF701FAB0F1FF3F0BD1B4F1FF3F03D00022164B43F8242044F039
:403780000044194B1C6038BD184B53F82020134B1B689A4208D800220E4B43F8242044F00044114B1C6038BD00210A4A42F82010094A52F820201343084A1360FFF77CFFDE
:4037C00038BD00BF2882FF1FE484FF1F9081FF1F4881FF1F4482FF1F14430000D084FF1F2C82FF1FB084FF1FF484FF1F3C430000014B1868704700BF1083FF1F0E4B70B560
:403800001E460E4C0025E41AA410A54204D056F8253098470135F8E700F012FE084B094C1E46E41AA4100025A54204D056F8253098470135F8E770BD4C4400004C4400001F
:403840004C4400005444000010B5431E0A44914204D011F8014B03F8014FF8E710BD03460244934202D003F8011BFAE7704700000000000000000000A5040000B104000076
:4038800005000000BD040000C9040000030000001C3900000100000004000000F83800000300000005000000D438000003000000000000008839000002000000010000000D
:4038C000283900000400000002000000583900000400000002040000000000000000000004050000000000007108000001030000000000000508000002040000000000002D
:40390000710800000305000000000000000000000103000000000000850900000104000000000000510A00000100000000000000D50700000201000000000000BD07000070
:403940000301000000000000B50B00000401000000000000A507000001010000000000008507000002020000000000006D0700000302000000000000410B00000402000075
:4039800000000000550700000102000000000000ED0700000500000000000000290C0000434C4F434B5F5F64697370617463685F3235304D535F486F7572730A00000000F0
:4039C000434C4F434B5F5F64697370617463685F4B525F486F7572730A000000434C4F434B5F5F64697370617463685F4B4C5F486F7572734D696E0A00000000434C4F43A8
:403A00004B5F5F64697370617463685F3235304D535F4D696E0A0000434C4F434B5F5F64697370617463685F4B525F4D696E757465730A00434C4F434B5F5F64697370610B
:403A40007463685F4B4C5F4D696E757465730A00434C4F434B5F5F64697370617463685F4B4C5F486F7572730A000000434C4F434B5F5F6572726F7248616E646C65720ABD
:403A800000000000434C4F434B5F5F696E6372656D656E745769646765740A00434C4F434B5F5F736574446973706C6179466F6E74730A00434C4F434B5F5F73657445642A
:403AC0006974466F6E74730A00000000434C4F434B5F5F64697370617463685F4B524C505F486F7572730A00434C4F434B5F5F64697370617463685F4B524C505F4D696EB4
:403B00000A000000434C4F434B5F5F696E6372656D656E74314D696E7574650A00000000434C4F434B5F5F6572726F7248616E646C6572526F7574696E650A000A0A0A00BF
:403B4000290E0000020000000100000099100000FA0000000100000071120000320000000100000055415254207374617274656400000000203A20000FB103053C3CB203EF
:403B8000053C3CB306053C3C053C3CB40103C003280804C101C0C2020D00C3028D2AC4028DEEC5011A3601C0E0100422070A2E30252A28262E3A00010313E10F16060D2D58
:403BC00026232727252D3B000104133A0105290000000000003E5B4F5B3E3E6B4F6B3E1C3E7C3E1C183C7E3C181C577D571C1C5E7F5E1C00183C1800FFE7C3E7FF0018249B
:403C00001800FFE7DBE7FF30483A060E2629792926407F050507407F05253F5A3CE73C5A7F3E1C1C08081C1C3E7F14227F22145F5F005F5F06097F017F006689956A6060C0
:403C400060606094A2FFA29408047E040810207E201008082A1C08081C2A08081E101010100C1E0C1E0C30383E3830060E3E0E06000000000000005F0000000700070014D6
:403C80007F147F14242A7F2A12231308646236495620500008070300001C2241000041221C002A1C7F1C2A08083E08080080703000080808080800006060002010080402CD
:403CC0003E5149453E00427F400072494949462141494D331814127F1027454545393C4A49493141211109073649494936464949291E0000140000004034000000081422B6
:403D0000411414141414004122140802015909063E415D594E7C1211127C7F494949363E414141227F4141413E7F494949417F090909013E414151737F0808087F00417F81
:403D400041002040413F017F081422417F404040407F021C027F7F0408107F3E4141413E7F090909063E4151215E7F09192946264949493203017F01033F4040403F1F20F7
:403D800040201F3F4038403F631408146303047804036159494D43007F4141410204081020004141417F04020102044040404040000307080020545478407F2844443838FF
:403DC00044444428384444287F385454541800087E090218A4A49C787F0804047800447D40002040403D007F1028440000417F40007C047804787C08040478384444443883
:403E0000FC1824241818242418FC7C08040408485454542404043F44243C4040207C1C2040201C3C4030403C44281028444C9090907C4464544C44000836410000007700D5
:403E400000004136080002010204023C2623263C1EA1A161123A4040207A385454555921555579412254547842215554784020545579400C1E52721239555555593954549D
:403E8000545939555454580000457C410002457D420001457C407D1211127DF0282528F07C545545002054547C547C0A097F4932494949323A4444443A324A4848303A41AA
:403EC00041217A3A42402078009DA0A07D3D4242423D3D4040403D3C24FF2424487E4943662B2FFC2F2BFF0929F620C0887E090320545479410000447D413048484A32389E
:403F00004040227A007A0A0A727D0D19317D2629292F28262929292630484D4020380808080808080808382F10C8ACBA2F102834FA00007B000008142A142222142A140834
:403F40005500550055AA55AA55AAFF55FF55FF000000FF00101010FF00141414FF001010FF00FF1010F010F0141414FC001414F700FF0000FF00FF1414F404FC141417109D
:403F80001F10101F101F1414141F00101010F0000000001F101010101F10101010F010000000FF101010101010101010FF10000000FF140000FF00FF00001F10170000FC4A
:403FC00004F414141710171414F404F40000FF00F714141414141414F700F7141414171410101F101F141414F4141010F010F000001F101F0000001F14000000FC14000025
:40400000F010F01010FF10FF141414FF141010101F00000000F010FFFFFFFFFFF0F0F0F0F0FFFFFF0000000000FFFF0F0F0F0F0F3844443844FC4A4A4A347E0202060602F9
:404040007E027E0263554941633844443C04407E201E2006027E020299A5E7A5991C2A492A1C4C7201724C304A4D4D303048784830BC625A463D3E494949007E0101017E81
:404080002A2A2A2A2A44445F444440514A444040444A51400000FF0103E080FF000008086B6B083612362436060F090F06000018180000001010003040FF0101001F0101C4
:4040C0001E00191D1712003C3C3C3C000000000054465400427566666572206F766572666C6F7700011F0000000000000200000000000000010000000C4100000000000007
:4041000000000000010000000100000002000000000000002D1F00000000000000000000000000000000000000000000000000000100000000000000004F00400C00105132
:4041400000402000405100403000F05100401000000001400008800801408007001401400006801A0140800100400140000A004C0140000200500140200000006052004040
:40418000740400480600000801407C0400488000001A0140FC04004880000000FF000101020202020303030303030303040404040404040404040404040404040505050510
:4041C000050505050505050505050505050505050505050505050505050505050606060606060606060606060606060606060606060606060606060606060606060606065B
:4042000006060606060606060606060606060606060606060606060606060606070707070707070707070707070707070707070707070707070707070707070707070707DA
:40424000070707070707070707070707070707070707070707070707070707070707070707070707070707070707070707070707070707070707070707070707070707077E
:404280000707070707070707070707070707070707070707070707070707070701000000A44200000000000003000000000000000000000091010000FFFFFFFF00000000C2
:4042C0000000000000000000000000000000000010270000010000000000000000000000000000000000000000000000010000000000000000000000000000000100000084
:404300000100000001000000010000000100000001000000800000000100000080000000400000000800000004000000010000000200000000000000010000000100000026
:40434000010000008000000040000000080000000400000051010000A1040000FD120000511300007913000029130000F1350000F1350000F1350000F1350000F135000080
:40438000F135000000000000000000000100000002000000030000000000000004000000616C726D5F6379636C69635F316D730065765F6379636C69635F316D73000000BA
:4043C00065765F6576656E745F6F6E44617461007265735F636C6F636B5F4C6F636B00007265735F6576656E745F4C6F636B000074736B5F696E69740000000074736B5F45
:404400006261636B67726F756E64000074736B5F636F6E74726F6C0074736B5F696E70757400000074736B5F73797374656D000074736B5F646973706C6179004300000089
:40444000F8B500BFF8BC08BC9E4670474D000000D5210000F8B500BFF8BC08BC9E4670472900000078440000C880FF1F50020000883800000000000000000000000000009E
:404480000000000000000000000000000300000000000000000000000000FFFF000000000300000000000000000000000000FFFF00000000000000000000000010410000A9
:4044C0000000000000000000E4400000A043000000000000FFFFFFFFFFFFFFFFFFFFFFFFFFFFFFFFFFFFFFFFFFFFFFFFFFFFFFFFFFFFFFFFFFFFFFFFFFFFFFFFFFFFFFFFE1
:40450000FFFFFFFFFFFFFFFFFFFFFFFFFFFFFFFF0100000002000000030000000400000005000000FFFFFFFF0000000000000000070000000600000003000000020000006E
:40454000010000000100000001000000010000000100000001000000FFFFFFFFFFFFFFFFFFFFFFFFFFFFFFFFFFFFFFFFFFFFFFFFFFFFFFFFFFFFFFFFFFFFFFFFFFFFFFFF5D
:40458000FFFFFFFFFFFFFFFFFFFFFFFFFFFFFFFFFFFFFFFFFFFFFFFFFFFFFFFFFFFFFFFFFFFFFFFFFFFFFFFFFFFFFFFFFFFFFFFFFFFFFFFFFFFFFFFFFFFFFFFFFFFFFFFF3B
:4045C000FFFFFFFFFFFFFFFFFFFFFFFFFFFFFFFFFFFFFFFFFFFFFFFFFFFFFFFFFFFFFFFFFFFFFFFFFFFFFFFFFFFFFFFFFFFFFFFFFFFFFFFF030000000300000003000000E6
:40460000030000000300000003000000B0430000C0430000D0430000E0430000F0430000FC4300000C4400001844000024440000304400006CAAFF1F00000000A098FF1FC1
:404640007094FF1F44A8FF1FE4B9FF1F0000E02EC05D00001800000000366E010000000000000000000000000000000000000000000000000000000000000000000000006B
:404680003C4400000000000000000000000000000000000000000000000000000000000000000000000000000000000000000000000000000000000000000000000000007A
:4046C000B082FF1F0000000000000000000000000000000000000000000000000000000000000000000000000000000000000000000000000000000000000000000000006A
:404700000000000000000000000000000000000000000000000000000000000000000000000000000000000000000000000000000000000000000000000000000000000079
:404740000000000000000000000000000000000000000000000000000000000000000000000000000000000000000000000000000000000000000000000000000000000039
:4047800000000000000000000000000000000000000000000000000000000000000000000000000000000000000000000000000000000000000000000000000000000000F9
:4047C00000000000000000000000000000000000000000000000000000000000000000000000000000000000000000000000000000000000000000000000000000000000B9
:020000040003F7
:0200000480007A
:40000000024F00400164004003650040010701400F080140460901405F0A0140390B0140021701404B18014044190140071A0140451B01400540014008410140064201404A
:400040000743014002440140014501400146014002470140064801400C4D0140045001400151014001200A4B890F880F89388A72EA04840788078C048E0190019206AC0224
:40008000AE01B007D602D724D804DB04DC01DF010068058207140A800D020E280F011002158217201A801D801E8A1F04240C251A261A27102CA02D80360A37203C043E5000
:4000C0003F0145884C044D824F045420560157046220688069826A706B24730182049080920194089660972D99A09A109B089E499F30A220A340A4A0A510A641A704A82076
:40010000A901AA10B140B304C0F7C2F8C4D1CAD0CCE0CEF0D050D230D804E40404620533061407C4080209200A0D0BD00C420E08100D1280148D150E181119551A221BAAAC
:400140001C8D208D2440288D2D942E802F69320F330F348035F03670380239083A883B203E115440580459045B045F01822085038704880C8A718C098D808ED08F15930891
:400180009573970C981099739A409B049E03A014A4DCA52AA622A744A810AAACB1C0B2E0B50FB61FB730B982BA08BB20BF40C004C640C9FFCA07CBFFCC40CD20CEF0CF05F0
:4001C000D008D409D804D904DA04DB04DC11DD01DF01E040E1A8E240E3200180031804800520068009100A600B010D200E0110A01201132014081504164019811B181E2138
:400200002118222024802602270A29802D042F10310833103408352036123708380839203E083F804402460147025520569057405E925F04600263286540C0D7C2CFC47FE3
:40024000CA48CCE6CE56D080D6F0D81EE208E6010608081109020A0E0E0C1213180C1A131B031F01241126062A102F0330103103340F3A203E0140354106460B47EC4834C8
:4002800049FF4AFF4BFF4EF04F44500C54015604580459045A045B045C015D115F0166C06A406B0284048A028D048E088F029102920193059401950698049E08A202A5065E
:4002C000A601A801AC04B004B106B201B301B402B608B808BE50D418D604D804D904DB04DC11DD10DF010008010802010308048005200610080A09800A080D200F8011403A
:40030000128813041604172819501B0A1D201E401F1020402104274029082D80300232043750384039013A023D2047084D204F80564E5A025D015E485F20608061506780D1
:4003400080808740908092819440972099A09A109B189E48A110A340A416C0E7C25FC46FCA12CC33CE28D040D230D6F1D88D9C02AC01B002B401BE11D804DF010044018032
:400380000308088109080A840E011092120813041602180519011B081E882180220923042898298030813118382039093B80408D430249504A08528159015C025D0161C05E
:4003C000681469406A087090710872048002830888028A408B409040910892819540960A97049A029C0A9E01A302A416A580A68CAB40C007C28FC48FCA0FCC0FCE0FD00D64
:40040000D20CD601EC013240330434083580CCF00704080896809C089D809F04C080C2105308590196809D80D420D6401B0896809D80A708A901C610EA207001DC019402B8
:400440009402800194028240858096809D80E210E680108070047E0188808A019008A804C408DC01DE04E004E60100030C0310031C0300FF8094000040000000609A00003C
:400480000A1310648002049856980902043800C0072138D80198000284000000849A0000000200008400000004FC800308E0020F7F1380002000000A000045003506100055
:4004C00000BEC0DF3BFFFFFF2200F008040000000000000004040400000000010000C00040011011C00100114001400100000000000000000000000000000000001C00E1C9
:4005000033000C041F0820000244800003C040000C18000004FF000000102300080000E31C3C23C23FE700180180800010C02C000F1FC038000028280000410024060500C5
:4005400001000EC024FFFFFF62A0F0410C00000000000213040404041111000100000000000040020010301000101012000000000000000000000000000000003800000008
:4005800000000000800040BCBC00B4000000000004181800080000000000000000000000000000000000000000000000000000000000000000000000000000000000000013
:4005C00000000000000000000000000000000000000000000000000000000000000000000000000000000000000000000000000000000000000000000000000000000000FB
:4006000000000000000000000000000000000000000000000000000000000000000000000000000000000000000000000000000000000000000000000000000000000000BA
:40064000000000000000000000000000000000000000000000000000000000000000000000000000000000000000000000000000000000000000000000000000000000007A
:40068000000000000000000000000000000000000000000000000000000000000000000000000000000000000000000000000000000000000000000000000000000000003A
:0200000490006A
:0400000000004007B5
:0200000490105A
:04000000BC90ACAF55
:0200000490303A
:02000000506E40
:0200000490402A
:4000000000000000000000000000000000000000000000000000000000000000000000000000000000000000000000000000000000000000000000000000000000000000C0
:400040000000000000000000000000000000000000000000000000000000000000000000000000000000000000000000000000000000000000000000000000000000000080
:400080000000000000000000000000000000000000000000000000000000000000000000000000000000000000000000000000000000000000000000000000000000000040
:4000C0000000000000000000000000000000000000000000000000000000000000000000000000000000000000000000000000000000000000000000000000000000000000
:0200000490501A
:0C00000000012E16106900012E3160D79F
:00000001FF